:02000002D0002C
:1040000000400D00247B0D00000006000C0005019F
:084010000401BD0B00000000DB
:044018008C6D0D009E
:1040200009480A49884208B505D0094A824202D0A7
:10403000121A02F069FE0748074A0021121A02F01C
:1040400071FE014808BD00BF58E50320947A0D00B9
:10405000C0E50320C0E50320F0E7032070B5074E5C
:10406000074C01F0A1FEA41BA4080025A54200D125
:1040700070BD56F8043B98470135F7E7687A0D00A4
:104080008C7A0D0000F026B808B500F06BF8BDE89A
:10409000084001F04BBE01F013BC01F019BC000058
:1040A00008B5034A00210C2001F06EFBFEE700BFBB
:1040B000F9540D000078B0FA80F0400970470123F0
:1040C0000370704710B50446006808B101F000FCA9
:1040D000204610BD73B51F4C0021052002F090F959
:1040E00041F288311C4801F0ABF9204600F0DEFCBB
:1040F000204600F09DFE00250121204600F087FCAF
:104100004FF001162A46294601A8C4E90456019534
:1041100001F002FA019B3C2B204610D100F088FEF2
:104120000121204600F073FCC4E904560B492046E7
:1041300001F051FD204601F0E7F802B070BD00F03B
:1041400077FE0121204600F062FCC4E904560449D0
:10415000EDE700BFD0E5032040E60320A06D0D0091
:10416000B06D0D0008B5052002F074F9012804D1E6
:10417000BDE80840014801F07FB908BD40E60320D2
:1041800038B50F4C0F4BA36000252560A580A571A5
:10419000032001F001FB0C4A0C4920460C4C02F0B4
:1041A000ADF92946012001F007FB0721204600F068
:1041B0004FFC2046044A0749BDE8384002F09EB94A
:1041C000C4E503200000FFFFC0E50320C5400D004B
:1041D000D0E503201D4A0D00704710B5102104469C
:1041E00002F091F9204610BD0EB403B503AB0021D7
:1041F00053F8042B019301F016FD02B05DF804EBB7
:1042000003B0704773B5044608462279A36832B1FB
:10421000A3B90B4902B0BDE8704001F0C9BC094A1E
:10422000267B094D0949647B012E18BF2946CDE93B
:1042300000140749FFF7D8FF02B070BD054AEFE749
:10424000C86D0D00BF6D0D00C46D0D00C06D0D007B
:10425000DE6D0D00B76D0D002DE9F04F85B01F46E6
:10426000BDF93880BDF83C30A8EB0209A7EB010A84
:10427000B9F1000FB8BFC9F10009BAF1000FB8BF1A
:10428000CAF1000AD14583460C46154604DD3A467C
:104290002C4647460D469046BC4205DD2A4645461B
:1042A000904622463C4617463E1BB2B20092A8EB0F
:1042B0000502002AB8BF52420192C6F3C03202FA88
:1042C00086F64545B4BF01224FF0FF3276100292C8
:1042D000BC421CDCDBF800200393D145D2F81880E7
:1042E000C7BF294622462A4621465846C047019A5A
:1042F000039BB61AB1B236B2002E05DA029A154403
:10430000009A56182DB236B2013424B2E0E705B057
:10431000BDE8F08F704710B404682469A4465DF8C6
:10432000044B604730B40468BDF808500295A46B94
:10433000A44630BC604730B40468BDF8085002950C
:10434000E46BA44630BC604770B4BDF90C50BDF8B6
:1043500010600468CDE90356246CA44670BC604725
:104360002DE9F3411C460368BDF820805B690546D2
:104370001646013C34440F4624B298472B68CDF8CA
:10438000048000949C6A28463B4632463946A04742
:104390002B68DB6A284602B0BDE8F04118472DE9DA
:1043A000F3411D460368BDF820805B69044617464B
:1043B0000E469847CDE9007822686B1E3344956A13
:1043C00020461BB23A463146A8472368DB6A20469E
:1043D00002B0BDE8F04118472DE9F3471E460368D7
:1043E000BDF928905B69BDF82C800C460546174640
:1043F00098472644B4422B680BDACDF80080D3F8F6
:1044000020A021464B463A4628460134D04724B2E4
:10441000F0E7DB6A284602B0BDE8F047184713B55D
:1044200002680191B0F90E100091146CB0F90C30D3
:1044300000221146A04702B010BD2DE9F3471D46EA
:104440000368BDF82C805B69BDF9289004460F46CF
:10445000164698472368CDF80080D3F824A032464A
:104460002B4639462046D0472368CDF8008009F115
:10447000FF323244D3F824A039462B46204612B2EC
:10448000D0472368CDF80080D3F820A032464B46B1
:1044900039462046D0476B1ED9192368CDF80080D5
:1044A0001D6A20464B46324609B2A8472368DB6A9C
:1044B000204602B0BDE8F047184770472DE9F743A2
:1044C00099421646BDF92870BDF82C9002688046C6
:1044D0000D461C4613D1BE42C8BF3346CDF82890C6
:1044E000C4BF3E461F467B1C946B9B1B1BB23246CF
:1044F00029464046A44603B0BDE8F0436047BE42AB
:104500000AD19942C2BF0B4625461C46631CCDF812
:104510002890D46B5B1BE9E753699847CDE9007994
:10452000D8F8003040469F6A324623462946B847AD
:10453000D8F80030DB6A404603B0BDE8F0431847C6
:1045400001F00303B0F90A208376C907B0F90830F7
:1045500059BF8381C2818281C381704730B5428156
:10456000C281074A074D0181002481814FF0FF314C
:10457000C0E905124460056004610477046230BD3F
:104580000101000104730D002DE9F04F89B0CDE960
:1045900002120268BDF948800493BDF94C3052699B
:1045A0000593BDF850A00446904718F107024FF05C
:1045B000000648BF08F10E024FEAE20B01963546AD
:1045C000039B019ABDF904109A18059B8B4212B205
:1045D00027DD049B33444FF0000906930FFA89F05E
:1045E00080451FFA89F117DD4F0705BF069BC010F4
:1045F0006D001D5C18BFEDB22B060AD5029B20682A
:1046000007921944836909B21F4620465346B847AA
:10461000079A09F10109E1E7019B013301935E4427
:10462000CEE72368DB6A204609B0BDE8F04F1847A3
:104630002DE9F04F2DED028B91B01646026ABDF8C0
:1046400074809DF878509DF87C4003911F46BDF81A
:10465000703004938346002A40F0C580B0F90C30D6
:104660008B4240F34C81B0F90E30B34240F34781A6
:10467000062313FB0513002B40F3418106EBC40313
:10468000002B40F33C81037F1BB9AF2F84BF013760
:10469000FFB2DBF8003058465B6998470522099263
:1046A00000220592984A07EB8703D3180C93B3B204
:1046B0000693059A0C9B9B5C0793ABB20B93BDF8DA
:1046C0000C300893039B02FB05F919FA83F90FFAE2
:1046D00089F308EE103A08230A93039B02EB030ABE
:1046E0004FF000090FFA8AFA079ADBF80030D20778
:1046F00052D5012D1FFA89F23ED1012C3CD19B6984
:1047000006991F46049B0A4412B251465846B847C0
:1047100009F101034FFA83F9079B5B0807930A9B92
:10472000013B13F0FF030A93DED1059F01377BB2F3
:104730000593099B013B13F0FF030993B9D1049B37
:1047400043450FD0012DDBF800303BD1012C39D18E
:104750000899CDF8008005311C6A3246082309B259
:104760005846A047DBF80030DB6A584611B0BDEC74
:10477000028BBDE8F04F1847069914FB02F20A4479
:10478000049901910094DB6918EE101A1F4612B2C9
:104790002B465846B847BBE7049A4245B8D0012D8E
:1047A0001FFA89F207D1012C05D19B6906991F4692
:1047B0000A444346A8E70699CDF8048014FB02F2A8
:1047C0000A44DFE70B9ACDF8048002EB8201089AD5
:1047D000E4000A4411460094DC6932462B4609B2D3
:1047E0005846A047BEE7137A516812680D92FF1A27
:1047F000FFB201EBC70331F8372006929A7809928D
:10480000DA780B92012D93F9052093F906A00A920C
:1048100001D8012C57D9BDF9283008930FFA8AF333
:104820000793DBF8003058465B699847B3B24FF006
:1048300000080E931AFA86F3C14647460F930B9B66
:104840009F428FD2079B0E9A3B4403FB0423002216
:1048500005920F9A1BB202EB070A08EE103A0FFA04
:104860008AFA4346099A0599914241D25A1CD2B21A
:104870005B070C9207D1069B06990D9A01339BB2F8
:1048800012F80190069319F0800F12D0012DDBF879
:104890000030BDF80C101AD1012C18D10A9A9B696E
:1048A0001144059A11441E465246049B09B25846CB
:1048B000B047059E0136F3B24FEA490905935FFA06
:1048C00089F90C9BCEE70023CDE90733A9E70598CA
:1048D000089A024402FB0511049ACDE90042DB6903
:1048E00018EE102A1E4609B22B465846B047E0E79C
:1048F000099B013798445FFA88F8FFB29FE711B02F
:10490000BDEC028BBDE8F08FFB6D0D00F0B5026AC7
:1049100085B004460B46002A34D10A2908D1438ABF
:104920000282427E03EBC2036382012005B0F0BD28
:104930000D29FAD0E17E007E657E71B1B4F9106078
:10494000062111FB0061B4F90C60B142C1BFB4F99A
:104950001210228201EBC5026282E28A0192A28ACF
:104960000092CDE90205B4F91220B4F910102046E6
:10497000FFF75EFE237E228A03EB430302EB430331
:104980002382D2E70A2907D100230382937A417E4A
:10499000428A01FB0323C7E70D29C6D0157AA94235
:1049A000C3D3517A9942C0D351685D1BEDB201EB7C
:1049B000C505AF782FB3E97819B3E17E007E667E36
:1049C00091B195F905103944B4F9107000FB0171EB
:1049D000B4F90C70B94207DD00272782B4F9121030
:1049E000927A02FB06126282E28A0192A28A009205
:1049F000CDE90206B4F91220B4F910102046FFF7F1
:104A000017FE2979237E228A01FB0323B8E70129B7
:104A100038BF0121017641767047000010B5064B82
:104A200003600446006D08B100F086FD204600F0EA
:104A300087F8204610BD00BF5C730D0010B504461A
:104A4000FFF7ECFF2046702101F05DFD204610BD10
:104A500030B585B004460D4601F028FD104A1149D5
:104A6000CDE901214FF0FF3280210346009220461C
:104A7000202200F0EBF80C4B23600023C4E914352E
:104A800004F1580000F03BF804F1600000F037F842
:104A900004F1680000F033F8204605B030BD00BFD7
:104AA000801A0600A08601005C730D0013B5044651
:104AB000503000F039FD636DD90705D5022204217D
:104AC00004F1580000F02FF8636D9A0705D5002215
:104AD000032104F1600000F026F8636D5B0705D543
:104AE0000222114604F1680000F01DF80123009332
:104AF0003C220221204600F0A9F902B010BD00219D
:104B00000A22C0E900127047002310B50446C171A3
:104B1000837188B201F09EFC08B10323A37100F0F9
:104B2000F3FC206010BD38B50C4605461146A0B216
:104B300001F066FC21462846BDE83840FFF7E4BF97
:104B400010B5044B03600446C06A08B100F0C0FE13
:104B5000204610BD68780D0010B50446FFF7F0FF41
:104B60002046502101F0CFFC204610BD002910B591
:104B70004BDBB0F90C408C4247DD002A45DBB0F935
:104B80000E40944241DD847E022C1FD0032C26D09F
:104B9000012C04D10489D24314440A4621B2012BCA
:104BA00023D0022B32D083BB002A13460489C06A6B
:104BB000B8BFD31DDB1013FB041102F00702012361
:104BC0009340425C22EA030242541EE00489C94336
:104BD00021444489D243224409B212B2DFE7448916
:104BE000C9430C44114622B2D9E7002A048913466E
:104BF000B8BFD31DDB1013FB0411C36A02F007001A
:104C000001228240585C02435A5410BD002A1346C8
:104C10000489C06AB8BFD31DDB1013FB041102F076
:104C20000702012303FA02F2435C5A40CCE710B5B5
:104C3000044690F93600012180B201F0F2FB606A6F
:104C400018B1BDE8104000F0BABE10BD70B5044602
:104C50001D460026FFF782FC114B2360666215B9E2
:104C600001F024FC0546FF2384F8333084F8363005
:104C70009DF9103084F837300A4BA363012384F880
:104C80003C30059BA3644FF6FF72069BA286C4E9E5
:104C90000A562664A4F84460E364204670BD00BF51
:104CA00068780D00B4730D00F8B50446806A0D46AF
:104CB00090B194F9301001F06DFAA06A03680021F8
:104CC0009B689847A06A036829469B689847A06A32
:104CD000BDE8F84001F065BA94F93530014698B264
:104CE00001F09FFB606A20B12946BDE8F84000F062
:104CF000EDBE0826802794F9330005EA070180B24B
:104D000001F08FFB94F93400012180B201F089FB9E
:104D100094F93400002180B201F083FB013E4FEA98
:104D20005707E8D1F8BD38B50446806A0D4680B112
:104D3000A16C01F021FA002D204614BFA721A62165
:104D4000FFF7B2FFA06A88B1E16CBDE8384001F01E
:104D500013BA606A18B104F1380100F049FE94F901
:104D60003600002180B201F05CFBE4E72046BDE89C
:104D70003840FFF75CBF2DE9F8430446806A0D46D2
:104D80008F1840B394F9301001F004FAA06A036858
:104D900000219B6898470126BD42A06A17D01F2EAC
:104DA0000CD901F0FEF994F93010A06A01F0F2F983
:104DB000A06A036800219B6898470126A06A15F83D
:104DC000011B036801369B689847F6B2E4E7BDE82B
:104DD000F84301F0E6B994F93530014698B201F094
:104DE00020FBAF4222D0606A15F8019B18B14946FA
:104DF00000F06CFEF5E708264FF0800894F93300C8
:104E000009EA080180B201F00CFB94F93400012199
:104E100080B201F006FB94F93400002180B201F069
:104E200000FB013E4FEA5808E8D1DAE7BDE8F88315
:104E3000B0F90A30DA1D48BF03F10E02B0F90830AC
:104E4000C06AD2105A43002101F06CBF2DE9FF4126
:104E50001E46C36A9DF8288004460F461546B3B126
:104E60002046FFF7E5FFB4F90A00B4F9081020283E
:104E70001FDC20230122CDE901322038732373394E
:104E8000009300EBD070894B01EBD1711FE0B0F9BA
:104E90000A30D81D48BF03F10E00B4F90830C01025
:104EA000584300F00DFDE0620028D9D104B0BDE800
:104EB000F08140234FF0010CCDE9013C52234038F2
:104EC000523900937A4B00EBD07001EBD17140F373
:104ED0004F0241F34F012046FFF756FBA06A84F8CA
:104EE0003170002878D0002D74D1B4F90A30202B0D
:104EF0000CBF3C253D2584F83050B8F1000F01D09F
:104F000001F03EF9FEB194F9370000281BDB0121C6
:104F100080B201F075FA94F93700012180B201F0F6
:104F200080FA012000F0C8FE94F93700002180B219
:104F300001F077FA0A2000F0BFFE94F93700012152
:104F400080B201F06EFAA06A002874D0A16C01F062
:104F500013F9042257492046FFF70DFFA17A0139C2
:104F6000C9B22046FFF7A0FE534904222046FFF7AE
:104F700002FF94F93130012B0CBF1021142120467F
:104F8000FFF792FE04224D492046FFF7F4FEA36886
:104F90004B4A93425CD14B4904222046FFF7EBFE7B
:104FA000D9212046FFF780FE94F93130012B0CBF48
:104FB0002221F1212046FFF777FE204642490622B2
:104FC000FFF7D9FEA06A002863D0E16C01F0D4F8A5
:104FD00001206BE76DB28EE794F93500012180B2B4
:104FE00001F00EFA94F93600012180B201F008FABE
:104FF00094F93600012180B201F013FA656A3DB1DF
:10500000B8F1000F3FF47EAF284600F0C7FC79E707
:1050100094F93300012180B201F0F2F994F93400DF
:10502000012180B201F0ECF994F93400294680B2F4
:1050300001F0F7F966E7606A18B104F1380100F091
:10504000D7FC94F93600002180B201F0EAF980E73C
:105050001E4A93420ED11E4903222046FFF78BFEC3
:1050600094F93130012B0CBF9F21CF212046FFF74F
:105070001BFE95E7174A934292D117490322204617
:10508000FFF779FE94F93130012B0CBF1021AF21CD
:10509000ECE794F93600012180B201F0C2F9606AB0
:1050A000002895D000F08BFC92E700BF80760D00C1
:1050B000C0730D00C8780D00CC780D00D0780D00BD
:1050C00080002000DA780D00D4780D0080004000C8
:1050D000DE780D0060001000E1780D0070B5002A48
:1050E000BDF810503DDBB0F90A40944239DD00298B
:1050F000BEBF5B181BB20021B0F90840CE18A64213
:10510000C4BF631A1BB2002B2BDDC06AD61014FB80
:105110000611014402F0070001228240012DD2B2A3
:1051200016D0022D0BD0E5B9D243D2B20B4499422E
:1051300017D011F8010B104001F8010CF7E70B44F0
:1051400099420ED011F8010B504001F8010CF7E71D
:105150000B44994205D011F8010B104301F8010CE2
:10516000F7E770BDF0B50029BDF8146076DBB0F943
:105170000850A94272DA002ABCBFD21813B2B0F9A3
:105180000A40B8BF0022D718A742C4BFA31A1BB257
:10519000002B63DDC2F3C404C76A15FB041112F0CF
:1051A0000702DBB207EB010423D0C2F10802D2B23E
:1051B0002C4D93423CBF4FF0FF0CA2EB030EAD5CB5
:1051C0003CBF4CFA0EFC0CEA0505012E07D0022E5E
:1051D0002ED04EB917F801C02CEA050503E017F8E8
:1051E00001C045EA0C057D54934237D3B0F908104D
:1051F0000C449A1AD2B2072A0ED9022E1DD1134698
:105200002178C9432170083BB0F90810DBB2072BA5
:105210000C44F5D802F0070202B3134B012E9B5C3D
:1052200019D0022E1BD0CEB9227822EA030314E053
:1052300017F801C085EA0C05D5E7002E14BFFF253D
:10524000002513462570083BB0F90810DBB2072B88
:105250000C44F7D8DEE7227813432370F0BD2278A0
:105260005340FAE7B8780D00C0780D0070B41446CA
:10527000827EBDF80C60022A0DD0032A18D0012AC4
:1052800011D10289E443144424B203960A4621460C
:1052900070BCFFF767BF42890589E4431944144491
:1052A000691A24B209B20396224670BCFFF716BFF2
:1052B00045891944691A09B2E7E730B41446827E79
:1052C000BDF80850022A0DD0032A18D0012A11D1A6
:1052D000E2180489A41A24B202950A46214630BC79
:1052E000FFF7FCBE0289C9431144E2184489A41A9D
:1052F00009B224B20295224630BCFFF733BF42897F
:10530000C943114409B2E7E72DE9F8430446806A2E
:10531000002842D0A16C00F02FFF4749052220460B
:10532000FFF729FD217A01392046C9B2FFF7BCFCFD
:10533000B4F90A30DE1D48BF03F10E06D4E90A05B0
:105340002389F61013FB06F615FA86F600283AD0E4
:1053500094F9301000F01EFFA06A036840219B689A
:1053600098470127B542A06A24D01F2F0CD900F01E
:1053700018FF94F93010A06A00F00CFFA06A0368CF
:1053800040219B6898470127A06A15F8011B036814
:1053900001379B689847FFB2E4E7606A18B104F1EF
:1053A000380100F025FB94F93600002180B201F0AD
:1053B00038F8B2E700F0F5FEA06A78B3E16CBDE81A
:1053C000F84300F0D9BE94F93500012180B201F014
:1053D00028F8B542F0D0606A15F8019B18B149462B
:1053E00000F074FBF5E708274FF0800894F93300CC
:1053F00009EA080180B201F014F894F9340001219F
:1054000080B201F00EF894F93400002180B201F06E
:1054100008F8013F4FEA5808E8D1DAE794F9360076
:10542000012180B200F0FDFF606A18B1BDE8F843C9
:1054300000F0C5BABDE8F883E4780D000000000074
:105440000B4B10B501241C60084601F0A3F906A31C
:10545000D3E9002301F018FA01F028FC054B18608D
:10546000A3F204531C6010BDFCA9F1D24D62404070
:105470000805014004050140014B024A1A607047CB
:10548000000601403546526E08B5024B1B689B680A
:10549000019308BD6802030008B5024B1B68DB6876
:1054A000019308BD6802030008B5024B1B689B68A6
:1054B000019308BD2C02030008B5024B1B68DB6892
:1054C000019308BD2C02030008B5024B1B681B6941
:1054D000019308BD2C02030008B5024B1B685B69F1
:1054E000019308BD2C02030008B5024B1B685B68E2
:1054F000019308BD1802030008B5024B1B68DB6866
:10550000019308BD1802030008B5024B1B685B69D4
:10551000019308BD1802030008B5024B1B68DB6E3F
:10552000019308BD3402030008B5024B1B681B6BD6
:10553000019308BD4802030008B5024B1B685B6B72
:10554000019308BD4802030008B5024B1B685B6C61
:10555000019308BD4802030008B5024B1B689B6C11
:10556000019308BD4802030008B5024B1B685B6944
:10557000019308BD6402030008B5024B1B681B6859
:10558000019308BD3C02030008B5024B1B68DB68B1
:10559000019308BD3C02030008B5024B1B681B6960
:1055A000019308BD3C02030008B5024B1B685B6910
:1055B000019308BD3C02030008B5024B1B689B69C0
:1055C000019308BD3C02030008B5024B1B68DB6970
:1055D000019308BD3C02030008B5024B1B681B6A1F
:1055E000019308BD3C02030008B5024B1B689B6A8F
:1055F000019308BD3C02030008B5024B1B681B6801
:10560000019308BD2802030008B5024B1B68DB6844
:10561000019308BD2802030008B5024B1B689B6973
:10562000019308BD2802030008B5024B1B68DB6923
:10563000019308BD2802030008B5024B1B681B6AD2
:10564000019308BD2802030008B5024B1B685B6A82
:10565000019308BD2802030008B5024B1B689B6A32
:10566000019308BD2802030008B5024B1B68DB6AE2
:10567000019308BD2802030008B5024B1B681B6B91
:10568000019308BD2802030008B5024B1B685B6B41
:10569000019308BD2802030008B5024B1B681B6C70
:1056A000019308BD2802030008B5024B1B681B6864
:1056B000019308BD3002030008B5024B1B685B690B
:1056C000019308BD3002030008B5024B1B68DB697B
:1056D000019308BD3002030008B5024B1B681B6A2A
:1056E000019308BD3002030008B5024B1B685B6ADA
:1056F000019308BD3002030008B5024B1B68DB6B49
:10570000019308BD3002030008B5024B1B681B6CF7
:10571000019308BD3002030008B5024B1B685B6CA7
:10572000019308BD3002030008B5024B1B681B68DB
:10573000019308BD4C02030008B5024B1B681B69AE
:10574000019308BD4C02030008B5024B1B685B695E
:10575000019308BD4C02030008B5024B1B689B690E
:10576000019308BD4C02030008B5024B1B68DB69BE
:10577000019308BD4C02030008B5024B1B681B6A6D
:10578000019308BD4C02030008B5024B1B685B6B1C
:10579000019308BD6002030008B5024B1B685B68FB
:1057A000019308BD2002030008B5024B1B685B692A
:1057B000019308BD2002030008B5024B1B68DB6A99
:1057C000019308BD2002030008B5034B1B68D3F802
:1057D0008830019308BD00002002030008B5034B88
:1057E0001B68D3F89430019308BD00002002030029
:1057F00008B5024B1B685B68019308BD40020300BB
:1058000008B5024B1B689B68019308BD400203006A
:1058100008B5024B1B68DB68019308BD400203001A
:1058200008B5024B1B681B69019308BD40020300C9
:1058300008B5024B1B685B69019308BD4002030079
:1058400008B5024B1B689B69019308BD4002030029
:1058500008B5024B1B68DB69019308BD40020300D9
:1058600008B5024B1B681B6A019308BD4002030088
:1058700008B5024B1B681B6B019308BD4002030077
:1058800008B5024B1B685B6B019308BD4002030027
:1058900008B5024B1B681B6C019308BD4002030056
:1058A00008B5024B1B685B6C019308BD4002030006
:1058B00008B5024B1B68DB6B019308BD4402030073
:1058C00008B5024B1B681B68019308BD1C0203004E
:1058D00008B5024B1B685B68019308BD1C020300FE
:1058E00008B5024B1B685B6A019308BD1C020300EC
:1058F00008B5024B1B685B6C019308BD1C020300DA
:10590000002240681146FFF7ABBF002240681146F5
:10591000FFF7B6BF40680022FFF7AABF4068002229
:1059200081F00101FFF794BF002340681A46194631
:10593000FFF786BF002340681A461946FFF778BF75
:10594000002240681146FFF76BBF002240681146F5
:10595000FFF756BF406800220221FFF759BF00231E
:1059600040681A46FFF744BF024B03225A60024ABE
:105970001A60704750E60320F4780D000021FFF70D
:10598000C3BE0021FFF7C8BE10B50446084621700B
:10599000FFF79AFE00236360204610BD10B5044651
:1059A0000078FFF7EBFF48B920784FF6FF71FFF75B
:1059B0007BFE2078BDE81040FFF7E3BF10BD007804
:1059C000FFF7DFBF400830B5186000241868884230
:1059D000E5B206D90134082C02D040081860F5E77A
:1059E0000725024B5B5D137030BD00BF28790D00A9
:1059F0002DE9F04306468FB000780C46FFF7BEFF56
:105A000000281BDB35781422002109A801F08AF94F
:105A10000B23002209A92846ADF82430FFF764FEC5
:105A20009DF82D3013B19DF82C5055B10027B94683
:105A3000B846012523795DB1C3B100200FB0BDE8A0
:105A4000F083DDF830809DF834909DF83570F1E7F3
:105A5000002B35D1A368434508D18DF820908DF8EF
:105A60002170BDF82020A3899A42E6D00023A168C6
:105A70008DF80F300A9804AB0DF10F02FFF7A2FF6B
:105A8000217985B989B9A36843450ED38DF8209053
:105A90008DF82170BDF82020A3899A4205D1049B7E
:105AA000434502D1C9E70029F9D100230193637B63
:105AB00000939DF80F20237B3078FFF71DFEBCE795
:105AC000CDE900552B462A460121F5E708B50078B7
:105AD000FFF7F2FDC0B208BD10B5094B094C022218
:105AE00000201A60084B2060A080A071A360FFF71F
:105AF00053FE2046054A0649BDE8104000F0FEBCB2
:105B000064E6032058E603200000FFFFC0E5032001
:105B1000C5400D0010B50446006808B1FFF71CFD34
:105B2000204610BD10B58368044613B10322014618
:105B30009847204610BD000010B5064C00232046B3
:105B40002360FFF701FD2046034A0449BDE81040E9
:105B500000F0D4BC68E60320C0E50320155B0D000F
:105B6000F8B506460D468F180024BD420CD03368A8
:105B700015F8011B9B6830469847031E01DB1C4447
:105B8000F3E7002C08BF1C462046F8BD13B50446B9
:105B9000084659B1019101F0F1F823680199DB68D9
:105BA0000246204602B0BDE81040184702B010BDC2
:105BB00008B5FFF7EBFF08BD03689B68184738B5C9
:105BC0000D210546FFF7F8FF0A2104462846FFF796
:105BD000F3FF204438BD38B50546FFF7D7FF04462C
:105BE0002846FFF7ECFF204438BD30B58BB00023CA
:105BF0008DF82430012A98BF0A2209AC0D46B1FB6A
:105C0000F2F101FB125303F0FF03092B94BF303371
:105C10003733DBB2AA4204F8013DEFD92146FFF742
:105C2000B5FF0BB030BD2DE9F04186B000AF0546A1
:105C30000E46381D142114463B60FFF751FE132811
:105C40000ED8391D2846FFF7A1FF04461EB128468D
:105C5000FFF7B5FF044420461837BD46BDE8F08184
:105C600000F1080323F00703E846ADEB030D2246DD
:105C7000411C3B686846FFF733FE69462846FFF73C
:105C800085FF0446C546E1E7002340681A461946E9
:105C9000FFF7CEBD014B024A1A6070476CE6032045
:105CA00030790D00024B1A68024B1A60704700BF32
:105CB00058E5032070E603200021FFF775BD10B5FD
:105CC0000446FFF72FFF204610BD00000348044A9A
:105CD00004490023836000F011BC00BF74E6032078
:105CE000C0E50320BF5C0D00014B1860704700BF8A
:105CF0005CE5032008B50B4B43B100F057F903688E
:105D00001B699847002801DDAFF30080064B43B1C3
:105D100000F0CAF903681B699847002801DDAFF35A
:105D2000008008BD000000000000000008B5FFF77B
:105D3000E1FFFFF7E9FB014B186008BDD4E7032042
:105D40000248034A0349121A00F0DEBF00F40320A0
:105D500004F40320907A0D0007B5002300931A463F
:105D60006FF07701FFF73AFD03B05DF804FB000028
:105D700007B543880A2B08D0502B0BD1094B1B6861
:105D80004BB103B05DF804EB1847FFF7E5FF03B034
:105D90005DF804FB002300931A466FF07701FFF7CC
:105DA0001DFDF4E788E6032038B5124C1248134D68
:105DB0000021FFF79DFD2368AB42114B0CBF012270
:105DC00000221A7002D0FFF7BBFF2560FFF78CFBA3
:105DD000044600F0AFFF0B4B13B12046AFF3008039
:105DE00000210848FFF764FDBDE83840064800215F
:105DF000FFF7EABC00F40320E95C0D001E1C279AA3
:105E000084E6032000000000715D0D00704710B5AE
:105E10001821044600F077FB204610BDF0B5037D45
:105E2000062B8DB00E4600F104074FF0000412D08F
:105E300000F1080515F8011D0A223046FFF7D5FECE
:105E4000AF42044419D0002CF4D02E213046FFF785
:105E5000B3FE0444EEE72F236A4639460A208DF844
:105E60000040FFF781FB684600F088FF3368024678
:105E7000DB68694630469847044620460DB0F0BDC1
:105E800010B5054B0446112240F8043B002100F0F8
:105E900049FF204610BD00BF58790D000346074A50
:105EA00010B543F8042B01F1100251F8044B43F8EC
:105EB000044B9142F9D10A781A7010BD58790D003F
:105EC00010B59DF8084044EA032343EA024242EA3F
:105ED000016104234160037510BD000013B5054B3B
:105EE0000360CB7800938B784A780978FFF7E8FF56
:105EF00002B010BD58790D0041747047704708B565
:105F00000021007CFFF728FC40EAE07008BD08B5DE
:105F10000121007CFFF720FC40EAE07008BD08B5D5
:105F2000007CFFF711FC20EAE07008BD08B5007C9A
:105F3000FFF702FC20EAE07008BD13B50446007CC0
:105F40000191FFF701FC0028019901DC607C20B180
:105F5000207CFFF709FC20EAE07002B010BD007C55
:105F6000FFF70ABC10B51421044600F0CCFA204615
:105F700010BD000010B54FF47A73044608460021A6
:105F8000C4E90113044B2360012320746374114698
:105F9000FFF7CAFB204610BD6C790D0010B5142226
:105FA0000446002100F0BEFE204610BD10B5104C86
:105FB00088B003A8FFF7F2FF2178BFF35B8F11F0E1
:105FC000010111D120460191FEF774F8019958B1F1
:105FD00003AA0848FFF7CEFF2046FEF770F8064AEE
:105FE0000649044800F08AFA024808B010BD00BF14
:105FF0008CE6032090E60320C0E50320FD5E0D0043
:1060000070474174704708B5007CFFF7EDFA20EA4D
:10601000E07008BD08B5007CFFF7BEFA20EAE0702A
:1060200008BD08B5007CFFF7C7FA40EAE07008BD7C
:1060300008B5007CFFF7B8FA40EAE07008BD007CC4
:10604000FFF7C2BA37B5457C04462DB1207C03B0BA
:10605000BDE83040FFF798BA007C0191FFF7C4FA21
:1060600000280199F2DC284603B030BD10B5142198
:10607000044600F048FA204610BD000010B54FF06D
:10608000000C0446084611464FF47A72C4E901C276
:10609000044A22600122207462741A46FFF76CFAE7
:1060A000204610BD9C790D0013B50E4C2178BFF32E
:1060B0005B8F11F0010112D120460191FDF7FAFF2B
:1060C000019960B1084A094B0948FFF7D7FF2046FC
:1060D000FDF7F5FF074A0849054800F00FFA0448A4
:1060E00002B010BDA4E60320A8E603202CE703209D
:1060F000B0E70320C0E5032001600D007047F8B54C
:10610000064615460C468F18BC4206D0336814F874
:10611000011B9B6830469847F6E72846F8BD007C8F
:106120000022FFF789BA007C0021FFF78DBA007CBE
:106130000021FFF791BA007C0021FFF795BA007C9F
:106140000021FFF799BA10B51421044600F0DBF9DD
:10615000204610BD10B54FF47A730446084600215E
:10616000C4E90113034B236020741146FFF794FA2E
:10617000204610BDCC790D00007C0022FFF73CBA10
:106180000023007C1A461946FFF73EBA007C002225
:10619000FFF742BAC9B2FFF7F9BF007C0022FFF750
:1061A00043BA0121FFF7F9BF002240681146FFF70B
:1061B00037BB002240681146FFF752BB00224068FF
:1061C0001146FFF75DBB40680022FFF751BB4068F6
:1061D000002281F00101FFF73BBB002340681A4613
:1061E0001946FFF72DBB002240681146FFF708BB98
:1061F000406800220221FFF70BBB002340681A46CB
:10620000FFF7F6BA024B04225A60024A1A6070473E
:10621000C4E70320F4790D00002340681A46FFF715
:10622000E7BA406800220221FFF7F2BA0022406874
:106230001146FFF7E5BA002240681146FFF7F0BAB1
:10624000002340681A461946FFF7F2BA0023406857
:106250001A461946FFF7F4BA40680021FFF718BB49
:1062600040680021FFF71CBB4068002281F001015B
:10627000FFF7EEBA40680022FFF7FABA0022406842
:106280001146FFF7FDBA002240681146FFF7E8BA51
:106290002DE9F043002495B016460D460746FFF75A
:1062A000EFFD214618220EA8009400F03BFD40238C
:1062B000CDE90C3421466B460CAA3046FFF7ECF8CA
:1062C000044600284CD1024601216868FFF7A8FA6D
:1062D0000221804622466868FFF7A2FA009E8146A6
:1062E0002146002E3CD000293AD17368022B03D0FE
:1062F0000A2B11D0F669F4E7B8F1000F0AD07169E2
:1063000006A8043107ADFFF7E9FD0FCD3C1D0FC412
:106310002B6823704146EDE7B9F1000F01D14946E2
:10632000E8E77469102201A800F0FCFC06238DF850
:10633000143001AD04F108031834186859682A466E
:1063400003C20833A3421546F7D101A906A807AD39
:10635000FFF7A4FD0FCD3C1D0FC42B682370DEE7B3
:106360000098FFF791F8384615B0BDE8F0830000BB
:10637000024B034A1A6000225A607047CCE70320A0
:10638000307A0D00232813B502D9002002B010BDC9
:10639000A0F10B03022B1AD8174C2178BFF35B8FA7
:1063A00011F001010BD120460191FDF783FE019907
:1063B00028B11248FFF7E8FA2046FDF780FE0F4BA0
:1063C0001878FFF789F90028DFD10120DEE70128DE
:1063D00009D800F06BF80021007CFFF755F980F038
:1063E0000100C0B2D2E709380128EED8FFF75CFE01
:1063F000007CFFF7F1F8F2E744E6032048E60320CB
:10640000232838B504460D460AD8FF2908D0FFF7DF
:10641000B9FF28B129462046BDE83840FFF744B807
:1064200038BD38B504460D46FFF746F8FF2810D0B2
:10643000062804D84D2323FA00F0C30709D42046C8
:10644000FFF7A0FF28B129462046BDE83840FFF7F6
:106450003BB838BD10B50446FFF72EF8031FDBB27A
:10646000012B08D92046FFF78DFF20B12046BDE85B
:106470001040FFF731B8002010BD000038B50023F0
:106480002025438014230446038085600561064966
:10649000284600F03AF804496060284600F035F8D4
:1064A000E060204638BD00BF647A0D0030B50F4D66
:1064B0002978BFF35B8F11F0010487B013D1284610
:1064C000FDF7F8FD78B101A8FFF7D8FF01AA214632
:1064D0000748FFF73FFE2846FDF7F1FD054A06494C
:1064E000034800F00BF8024807B030BDD8E703209E
:1064F000DCE70320C0E50320FD600D000B460146EC
:10650000184600F0F3BBFDF7C8BDFDF7C4BD0000A1
:1065100081F0004102E000BF83F0004330B54FEA54
:1065200041044FEA430594EA050F08BF90EA020FC1
:106530001FBF54EA000C55EA020C7FEA645C7FEA54
:10654000655C00F0E2804FEA5454D4EB5555B8BF77
:106550006D420CDD2C4480EA020281EA030382EAE8
:10656000000083EA010180EA020281EA0303362D7A
:1065700088BF30BD11F0004F4FEA01314FF4801C4D
:106580004CEA113102D0404261EB410113F0004F5F
:106590004FEA03334CEA133302D0524263EB430316
:1065A00094EA050F00F0A780A4F10104D5F1200EB4
:1065B0000DDB02FA0EFC22FA05F2801841F100010F
:1065C00003FA0EF2801843FA05F359410EE0A5F1E3
:1065D00020050EF1200E012A03FA0EFC28BF4CF014
:1065E000020C43FA05F3C01851EBE37101F00045CA
:1065F00007D54FF0000EDCF1000C7EEB00006EEBD7
:106600000101B1F5801F1BD3B1F5001F0CD3490860
:106610005FEA30004FEA3C0C04F101044FEA4452B7
:1066200012F5800F80F09A80BCF1004F08BF5FEA3E
:10663000500C50F1000041EB045141EA050130BD1E
:106640005FEA4C0C404141EB0101013C28BFB1F530
:10665000801FE9D291F0000F04BF01460020B1FA7B
:1066600081F308BF2033A3F10B03B3F120020CDA4E
:106670000C3208DD02F1140CC2F10C0201FA0CF02C
:1066800021FA02F10CE002F11402D8BFC2F1200C91
:1066900001FA02F120FA0CFCDCBF41EA0C01904047
:1066A000E41AA2BF01EB0451294330BD6FEA040490
:1066B0001F3C1CDA0C340EDC04F11404C4F120027B
:1066C00020FA04F001FA02F340EA030021FA04F38D
:1066D00045EA030130BDC4F10C04C4F1200220FAE4
:1066E00002F001FA04F340EA0300294630BD21FA22
:1066F00004F0294630BD94F0000F83F4801306BFE8
:1067000081F480110134013D4EE77FEA645C18BFDB
:106710007FEA655C29D094EA050F08BF90EA020F72
:1067200005D054EA000C04BF1946104630BD91EA6A
:10673000030F1EBF0021002030BD5FEA545C05D16D
:106740004000494128BF41F0004130BD14F58004AC
:106750003CBF01F5801130BD01F0004545F0FE4120
:1067600041F470014FF0000030BD7FEA645C1ABF55
:10677000194610467FEA655C1CBF0B46024650EA8C
:10678000013406BF52EA033591EA030F41F40021B8
:1067900030BD00BF90F0000F04BF0021704730B53E
:1067A0004FF4806404F132044FF000054FF0000113
:1067B00050E700BF90F0000F04BF0021704730B5D4
:1067C0004FF4806404F1320410F0004548BF4042A9
:1067D0004FF000013EE700BF42004FEAE2014FEAFE
:1067E00031014FEA02701FBF12F07F4393F07F4FD9
:1067F00081F06051704732F07F4208BF704793F0DC
:106800007F4F04BF41F40021704730B54FF46074EE
:1068100001F0004521F000411CE700BF50EA0102F1
:1068200008BF704730B54FF000050AE050EA01029A
:1068300008BF704730B511F0004502D5404261EB0A
:1068400041014FF4806404F132045FEA915C3FF44B
:10685000D8AE4FF003025FEADC0C18BF03325FEAE8
:10686000DC0C18BF033202EBDC02C2F1200300FA99
:1068700003FC20FA02F001FA03FE40EA0E0021FABE
:1068800002F11444BDE600BF70B54FF0FF0C4CF4AC
:10689000E06C1CEA11541DBF1CEA135594EA0C0F5E
:1068A00095EA0C0F00F0DEF82C4481EA030621EA99
:1068B0004C5123EA4C5350EA013518BF52EA0335D4
:1068C00041F4801143F4801338D0A0FB02CE4FF086
:1068D0000005E1FB02E506F00042E0FB03E54FF0B6
:1068E0000006E1FB03569CF0000F18BF4EF0010EAE
:1068F000A4F1FF04B6F5007F64F5407404D25FEAAA
:106900004E0E6D4146EB060642EAC62141EA55515C
:106910004FEAC52040EA5E504FEACE2EB4F1FD0C9E
:1069200088BFBCF5E06F1ED8BEF1004F08BF5FEA1C
:10693000500E50F1000041EB045170BD06F00046CE
:1069400046EA010140EA020081EA0301B4EB5C047B
:10695000C2BFD4EB0C0541EA045170BD41F4801173
:106960004FF0000E013C00F3AB8014F1360FDEBF98
:10697000002001F0004170BDC4F10004203C35DA74
:106980000C341BDC04F11404C4F1200500FA05F3F7
:1069900020FA04F001FA05F240EA020001F0004298
:1069A00021F0004110EBD37021FA04F642EB06010E
:1069B0005EEA430E08BF20EAD37070BDC4F10C0438
:1069C000C4F1200500FA04F320FA05F001FA04F2FC
:1069D00040EA020001F0004110EBD37041F10001E8
:1069E0005EEA430E08BF20EAD37070BDC4F12005F3
:1069F00000FA05F24EEA020E20FA04F301FA05F25B
:106A000043EA020321FA04F001F0004121FA04F202
:106A100020EA020000EBD3705EEA430E08BF20EAD2
:106A2000D37070BD94F0000F0FD101F0004640000C
:106A300041EB010111F4801F08BF013CF7D041EA8E
:106A4000060195F0000F18BF704703F00046520092
:106A500043EB030313F4801F08BF013DF7D043EA63
:106A60000603704794EA0C0F0CEA135518BF95EA19
:106A70000C0F0CD050EA410618BF52EA4306D1D1A0
:106A800081EA030101F000414FF0000070BD50EABF
:106A9000410606BF1046194652EA430619D094EA49
:106AA0000C0F02D150EA013613D195EA0C0F05D133
:106AB00052EA03361CBF104619460AD181EA030187
:106AC00001F0004141F0FE4141F470014FF000003F
:106AD00070BD41F0FE4141F4780170BD70B54FF0DA
:106AE000FF0C4CF4E06C1CEA11541DBF1CEA13555A
:106AF00094EA0C0F95EA0C0F00F0A7F8A4EB05043C
:106B000081EA030E52EA03354FEA013100F0888032
:106B10004FEA03334FF0805545EA131343EA1263FB
:106B20004FEA022245EA111545EA10654FEA0026B0
:106B30000EF000419D4208BF964244F1FD0404F569
:106B4000407402D25B084FEA3202B61A65EB0305C5
:106B50005B084FEA32024FF480104FF4002CB6EB82
:106B6000020E75EB030E22BFB61A754640EA0C0002
:106B70005B084FEA3202B6EB020E75EB030E22BF42
:106B8000B61A754640EA5C005B084FEA3202B6EB83
:106B9000020E75EB030E22BFB61A754640EA9C0042
:106BA0005B084FEA3202B6EB020E75EB030E22BF12
:106BB000B61A754640EADC0055EA060E18D04FEAD0
:106BC000051545EA16754FEA06164FEAC30343EA70
:106BD00052734FEAC2025FEA1C1CC0D111F4801F3D
:106BE0000BD141EA00014FF000004FF0004CB6E736
:106BF00011F4801F04BF01430020B4F1FD0C88BFD5
:106C0000BCF5E06F3FF6AFAEB5EB030C04BFB6EBDF
:106C1000020C5FEA500C50F1000041EB045170BDD2
:106C20000EF0004E4EEA113114EB5C04C2BFD4EBFF
:106C30000C0541EA045170BD41F480114FF0000E83
:106C4000013C90E645EA060E8DE60CEA135594EAFF
:106C50000C0F08BF95EA0C0F3FF43BAF94EA0C0F02
:106C60000AD150EA01347FF434AF95EA0C0F7FF477
:106C700025AF104619462CE795EA0C0F06D152EACB
:106C800003353FF4FDAE1046194622E750EA4106AF
:106C900018BF52EA43067FF4C5AE50EA41047FF4C0
:106CA0000DAF52EA43057FF4EBAE12E74A0011D272
:106CB00012F5001211D20DD56FF47873B3EB625256
:106CC0000ED44FEAC12343F0004343EA505323FA62
:106CD00002F070474FF00000704750EA013002D1D7
:106CE0004FF0FF3070474FF00000704710B5054C73
:106CF00013462CB10A4601460220AFF3008010BDB6
:106D00002046FCE7000000000A44914200F1FF33F6
:106D100000D1704710B511F8014B03F8014F9142B3
:106D2000F9D110BD02440346934200D1704703F8E5
:106D3000011BF9E738B50D4B1D68AB6B04467BB9F9
:106D40001820FEF7BDFD0A4A0A4BA863C0E90023DC
:106D5000094B83600B23838101220023C0E90423B4
:106D6000AB6B00221C615A6138BD00BF5CE503209B
:106D70000E33CDAB34126DE6ECDE0500034613F89E
:106D8000012B002AFBD1181A0138704721400D0051
:106D90005D400D0085400D0089400D0000000000A1
:106DA000596F7520646964206E6F7420706574007B
:106DB0004E6F726D616C0064656661756C74200065
:106DC0004D5342004C5342003C5350495365747438
:106DD000696E67732064656661756C743E003C5330
:106DE000504953657474696E677320257325752047
:106DF0002573204D4F444525753E000000000000DE
:106E00003E5B4F5B3E3E6B4F6B3E1C3E7C3E1C1818
:106E10003C7E3C181C577D571C1C5E7F5E1C001876
:106E20003C1800FFE7C3E7FF0018241800FFE7DB6A
:106E3000E7FF30483A060E2629792926407F0505C6
:106E400007407F05253F5A3CE73C5A7F3E1C1C0803
:106E5000081C1C3E7F14227F22145F5F005F5F06C8
:106E6000097F017F006689956A606060606094A216
:106E7000FFA29408047E040810207E201008082A2F
:106E80001C08081C2A08081E101010100C1E0C1ECE
:106E90000C30383E3830060E3E0E06000000000072
:106EA00000005F00000007000700147F147F142417
:106EB0002A7F2A122313086462364956205000089C
:106EC000070300001C2241000041221C002A1C7FF5
:106ED0001C2A08083E0808008070300008080808CE
:106EE00008000060600020100804023E5149453E41
:106EF00000427F400072494949462141494D3318BB
:106F000014127F1027454545393C4A4949314121F2
:106F10001109073649494936464949291E000014D6
:106F2000000000403400000008142241141414141E
:106F300014004122140802015909063E415D594ED0
:106F40007C1211127C7F494949363E414141227FE2
:106F50004141413E7F494949417F090909013E417B
:106F60004151737F0808087F00417F410020404164
:106F70003F017F081422417F404040407F021C02B5
:106F80007F7F0408107F3E4141413E7F0909090689
:106F90003E4151215E7F091929462649494932035C
:106FA000017F01033F4040403F1F2040201F3F40E2
:106FB00038403F631408146303047804036159499B
:106FC0004D43007F414141020408102000414141EE
:106FD0007F040201020440404040400003070800D3
:106FE00020545478407F2844443838444444283856
:106FF0004444287F385454541800087E090218A4C9
:10700000A49C787F0804047800447D400020404020
:107010003D007F1028440000417F40007C0478043C
:10702000787C080404783844444438FC1824241834
:1070300018242418FC7C08040408485454542404DC
:10704000043F44243C4040207C1C2040201C3C4009
:1070500030403C44281028444C9090907C44645428
:107060004C4400083641000000770000004136081B
:107070000002010204023C2623263C1EA1A161124B
:107080003A4040207A385454555921555579412277
:1070900054547842215554784020545579400C1E60
:1070A0005272123955555559395454545939555409
:1070B00054580000457C410002457D420001457C5A
:1070C000407D1211127DF0282528F07C5455450092
:1070D0002054547C547C0A097F4932494949323A48
:1070E0004444443A324A4848303A4141217A3A428B
:1070F000402078009DA0A07D3D4242423D3D404061
:10710000403D3C24FF2424487E4943662B2FFC2F1E
:107110002BFF0929F620C0887E09032054547941A9
:107120000000447D413048484A32384040227A00CD
:107130007A0A0A727D0D19317D2629292F282629E0
:1071400029292630484D4020380808080808080832
:1071500008382F10C8ACBA2F102834FA00007B0072
:107160000008142A142222142A1408550055005528
:10717000AA55AA55AAFF55FF55FF000000FF0010B1
:107180001010FF00141414FF001010FF00FF101067
:10719000F010F0141414FC001414F700FF0000FFAA
:1071A00000FF1414F404FC141417101F10101F1007
:1071B0001F1414141F00101010F0000000001F1006
:1071C0001010101F10101010F010000000FF101011
:1071D00010101010101010FF10000000FF1400001D
:1071E000FF00FF00001F10170000FC04F414141728
:1071F00010171414F404F40000FF00F7141414140E
:10720000141414F700F7141414171410101F101F7F
:10721000141414F4141010F010F000001F101F00CC
:1072200000001F14000000FC140000F010F010100B
:10723000FF10FF141414FF141010101F00000000A2
:10724000F010FFFFFFFFFFF0F0F0F0F0FFFFFF0096
:1072500000000000FFFF0F0F0F0F0F3844443844A9
:10726000FC4A4A4A347E02020606027E027E02631D
:10727000554941633844443C04407E201E200602A8
:107280007E020299A5E7A5991C2A492A1C4C720185
:10729000724C304A4D4D303048784830BC625A46C6
:1072A0003D3E494949007E0101017E2A2A2A2A2AB7
:1072B00044445F444440514A444040444A514000A1
:1072C00000FF0103E080FF000008086B6B08361226
:1072D000362436060F090F060000181800000010AB
:1072E00010003040FF0101001F01011E00191D1791
:1072F00012003C3C3C3C000000000000000000008C
:107300000000000000000000000000000D490D001A
:10731000615B0D00A1400D0015430D0017430D00EA
:1073200049430D0025430D0037430D0059420D0020
:1073300015430D0041450D00BB440D0061430D0098
:107340009F430D00D9430D001F440D00BD440D00A7
:107350003B440D0000000000000000001D4A0D002D
:107360003D4A0D000D490D00615B0D006D4B0D0098
:1073700015430D0017430D0049430D0025430D0033
:1073800037430D0059420D0015430D0041450D00D6
:10739000274D0D00BB520D006D520D00D9430D005D
:1073A0001F440D00BD440D003B440D0000000000D3
:1073B0000000000005420D00D9410D00DB410D0029
:1073C000000000000001800000000000000000003C
:1073D000038000000000000000000007C000000063
:1073E00000000000000007C00000000000000000D6
:1073F000000FC00000000000000000001FE00000BF
:10740000000000000000001FE0000000000000007D
:1074100000003FE00000000000000000003FF0001E
:1074200000000000000000007FF0000000000000ED
:10743000001FF87FF0000000000000003FFE7FF01A
:10744000000000000000003FFF7FF000000000008F
:1074500000001FFFFBE0000000000000000FFFF92C
:10746000FFC00000000000000FFFF9FFF80000005F
:1074700000000007FFF1FFFF00000000000003FC18
:1074800073FFFF80000000000001FE3FFFFF80004F
:107490000000000000FF1E0FFF00000000000000C1
:1074A0007FFE1FFC000000000000003FFFFFF8000F
:1074B0000000000000000FDFFFE0000000000000FF
:1074C000001F19FFC0000000000000003F3CFF004B
:1074D000000000000000007E7CF8000000000000BA
:1074E00000007FFE7C0000000000000000FFFFFCA9
:1074F0000000000000000000FFFFFE000000000090
:10750000000000FFFFFE0000000000000001FFEF90
:10751000FE0000000000000001FFCFFE00000000A0
:1075200000000003FF07FE0000000000000003FC55
:1075300007FE0000000000000003F003FE00000052
:1075400000000000018000FE0000000000000000BC
:1075500000007E000000000000000000003E00006F
:1075600000000000000000000C0000000000000708
:107570008000FC000003C0000000078001FC000048
:1075800003C0000000078001FC000003C0000000F1
:10759000078001E00000001E000000078001E000FD
:1075A00000001E007FE3F79FF9FDE7787BDFC0FF57
:1075B000F7FFBFFDFDFF787BDFC0FFF7FFBFFDFDDD
:1075C000FF787BDFC0F0F787BC3DE1FF787BDE0012
:1075D000F0F787BC3DE1F0787BDE0000F787803D67
:1075E000E1E0787BDE007FF7879FFDE1E0787BDEDE
:1075F00000FFF787BFFDE1E0787BDE00F0F787BC96
:107600003DE1E0787BDE00F0F787BC3DE1E0787B90
:10761000DE00F0F787BC3DE1E0787BDE00FFF7FF9E
:10762000BFFDE1E07FFBDFC0FFF7FFBFFDE1E07FD3
:10763000FBDFC07CF3F39F3DE1E03E7BCFC0000069
:10764000000000000000000000FFFFFFFFFFFFFF41
:10765000FFFFFFC0FFFFFFFFFD68DB111A31C0FF16
:10766000FFFFFFFD2B5AFB6AEFC0FFFFFFFFFD4B43
:107670005B3B1A33C0FFFFFFFFFD6B5BDB6AFDC0A6
:10768000000060000000000000000000000000009A
:1076900000E0000000000000000000000000000109
:1076A000E00000000000000000000000000001F009
:1076B0000000000000000000000000000003F000D7
:1076C00000000000000000000000000007F00000C3
:1076D000000000000000000000000007F8000000AB
:1076E000000000000000000000000FF80000000390
:1076F000C0007E000001E0007F0FF800000003C022
:1077000000FE000001E000FFEFF800000003C000F1
:10771000FE000001E000FFFFF800000003C000F0E1
:107720000000000F007FFE7FC0000003C000F000DB
:1077300000000F003FFE7FF83FF1FBCFFCFEF3BCE3
:107740003DEFE01FFE7FFF7FFBFFDFFEFEFFBC3D46
:10775000EFE01FC6FFFF7FFBFFDFFEFEFFBC3DEF3C
:10776000E00FE3C7FE787BC3DE1EF0FFBC3DEF00F9
:1077700007FF87FC787BC3DE1EF0F83C3DEF00017D
:10778000FFFFF0007BC3C01EF0F03C3DEF0001F3B3
:107790007FE03FFBC3CFFEF0F03C3DEF0003E33F53
:1077A000807FFBC3DFFEF0F03C3DEF0007E73C00CD
:1077B000787BC3DE1EF0F03C3DEF0007FFBE007893
:1077C0007BC3DE1EF0F03C3DEF0007FFFE00787B40
:1077D000C3DE1EF0F03C3DEF000FFFFE007FFBFF1D
:1077E000DFFEF0F03FFDEFE00FFFFF007FFBFFDF6C
:1077F000FEF0F03FFDEFE00FF9FF003E79F9CF9E7C
:10780000F0F01F3DE7E01FF1FF0000000000000066
:1078100000000000001F80FF007FFFFFFFFFFFFF51
:10782000FFFFFFE01C007F007FFFFFFFFEB46D88BD
:107830008D18E000001F007FFFFFFFFE95AD7DB5B6
:1078400077E000000F007FFFFFFFFEA5AD9D8D19C3
:10785000E0000006007FFFFFFFFEB5ADEDB57EE066
:107860000000000000000000414B0D00594B0D00CE
:107870000D490D00615B0D006D4B0D0015430D00B2
:1078800017430D0049430D0025430D0037430D00FC
:1078900059420D0015430D0041450D00274D0D00C7
:1078A000BB520D006D520D00D9430D001F440D0059
:1078B000BD440D003B440D000080C0E0F0F8FCFE2C
:1078C000000103070F1F3F7FAED580A8D300408D76
:1078D0002000A1C8DB40A4A62EAFDA02818FDA1205
:1078E00081DA02812200FF21000000000000000078
:1078F000000000005F590D0055590D004B590D0057
:1079000041590D0035590D0029590D0059620D00DE
:1079100061620D001D590D0015590D000B590D0028
:1079200001590D0091620D00000810182028303810
:107930006170700025592D256D2D25645425483A18
:10794000254D3A2553257A0061736374696D65008E
:1079500000000000000000001D5E0D000D5E0D0027
:107960000F5E0D000000000000000000FD5E0D0035
:10797000655F0D003B5F0D00615B0D002D5F0D002D
:10798000FF5E0D000F5F0D005F5F0D001F5F0D00BC
:10799000F95E0D00000000000000000001600D0015
:1079A0006D600D0045600D00615B0D0015600D0000
:1079B00031600D0023600D003F600D0003600D007D
:1079C00007600D000000000000000000FD600D00D9
:1079D00047610D001F610D00FF600D0027610D0064
:1079E0002F610D0037610D003F610D0000000000A8
:1079F00000000000FB610D00F1610D00E7610D006A
:107A0000A9610D00895C0D00DB610D0059620D005C
:107A100061620D00CF610D00C7610D00BD610D00F9
:107A2000B3610D0091620D00000000000000000035
:107A300019620D0023620D002D620D0037620D00EA
:107A400041620D004D620D0059620D0061620D0032
:107A500069620D0075620D007D620D0087620D0088
:107A600091620D000000000081410D0069590D0078
:107A7000D95A0D00395B0D00955C0D00A55C0D0019
:107A8000CD5C0D0005620D0071630D00000000006B
:047A900000000000F2
:107A940048790D0060E503200000000000000000AC
:107AA40000000000000000000000000000000000D2
:107AB40000000000000000000000000000000000C2
:107AC40000000000000000000000000000000000B2
:107AD40000000000000000000000000000000000A2
:107AE4000000000000000000000000000000000092
:087AF40000000000000000008A
:107AFC00FFFFFFFF00000102030405060708090A47
:107B0C000B0C0D0E0F101112131415161718191A41
:087B1C001B1C1D1E1F20280088
:047B24007856341249
:04000003D0004020C9
:00000001FF
